{
  "contractName": "auction",
  "abi": [
    {
      "inputs": [],
      "stateMutability": "nonpayable",
      "type": "constructor"
    },
    {
      "inputs": [],
      "name": "auctioner",
      "outputs": [
        {
          "internalType": "address payable",
          "name": "",
          "type": "address"
        }
      ],
      "stateMutability": "view",
      "type": "function"
    },
    {
      "inputs": [],
      "name": "auctionstate",
      "outputs": [
        {
          "internalType": "enum auction.auc_state",
          "name": "",
          "type": "uint8"
        }
      ],
      "stateMutability": "view",
      "type": "function"
    },
    {
      "inputs": [],
      "name": "bidinc",
      "outputs": [
        {
          "internalType": "uint256",
          "name": "",
          "type": "uint256"
        }
      ],
      "stateMutability": "view",
      "type": "function"
    },
    {
      "inputs": [
        {
          "internalType": "address",
          "name": "",
          "type": "address"
        }
      ],
      "name": "bids",
      "outputs": [
        {
          "internalType": "uint256",
          "name": "",
          "type": "uint256"
        }
      ],
      "stateMutability": "view",
      "type": "function"
    },
    {
      "inputs": [],
      "name": "etblock",
      "outputs": [
        {
          "internalType": "uint256",
          "name": "",
          "type": "uint256"
        }
      ],
      "stateMutability": "view",
      "type": "function"
    },
    {
      "inputs": [],
      "name": "highestbidder",
      "outputs": [
        {
          "internalType": "address payable",
          "name": "",
          "type": "address"
        }
      ],
      "stateMutability": "view",
      "type": "function"
    },
    {
      "inputs": [],
      "name": "highestpayablebid",
      "outputs": [
        {
          "internalType": "uint256",
          "name": "",
          "type": "uint256"
        }
      ],
      "stateMutability": "view",
      "type": "function"
    },
    {
      "inputs": [],
      "name": "stblock",
      "outputs": [
        {
          "internalType": "uint256",
          "name": "",
          "type": "uint256"
        }
      ],
      "stateMutability": "view",
      "type": "function"
    },
    {
      "inputs": [
        {
          "internalType": "uint256",
          "name": "a",
          "type": "uint256"
        },
        {
          "internalType": "uint256",
          "name": "b",
          "type": "uint256"
        }
      ],
      "name": "min",
      "outputs": [
        {
          "internalType": "uint256",
          "name": "",
          "type": "uint256"
        }
      ],
      "stateMutability": "pure",
      "type": "function"
    },
    {
      "inputs": [],
      "name": "cancleAuc",
      "outputs": [],
      "stateMutability": "nonpayable",
      "type": "function"
    },
    {
      "inputs": [],
      "name": "endAuc",
      "outputs": [],
      "stateMutability": "nonpayable",
      "type": "function"
    },
    {
      "inputs": [],
      "name": "bid",
      "outputs": [],
      "stateMutability": "payable",
      "type": "function"
    },
    {
      "inputs": [],
      "name": "finilize",
      "outputs": [],
      "stateMutability": "nonpayable",
      "type": "function"
    }
  ],
  "bytecode": "0x608060405234801561001057600080fd5b50336000806101000a81548173ffffffffffffffffffffffffffffffffffffffff021916908373ffffffffffffffffffffffffffffffffffffffff1602179055506001600360006101000a81548160ff02191690836003811115610077576100766100ac565b5b02179055504360018190555060f06001546100929190610114565b600281905550670de0b6b3a764000060058190555061016a565b7f4e487b7100000000000000000000000000000000000000000000000000000000600052602160045260246000fd5b6000819050919050565b7f4e487b7100000000000000000000000000000000000000000000000000000000600052601160045260246000fd5b600061011f826100db565b915061012a836100db565b9250827fffffffffffffffffffffffffffffffffffffffffffffffffffffffffffffffff0382111561015f5761015e6100e5565b5b828201905092915050565b610f91806101796000396000f3fe6080604052600436106100c25760003560e01c8063689cc41d1161007f578063a118be0211610059578063a118be0214610225578063dcbfb0ff14610250578063e88ab0801461027b578063f3fb05df14610292576100c2565b8063689cc41d146101925780637ae2b5c7146101bd5780639d957d45146101fa576100c2565b80631785c5a6146100c75780631998aeef146100f257806329a3fab9146100fc5780633fdceefd14610113578063507cd3cb1461012a57806362ea82db14610155575b600080fd5b3480156100d357600080fd5b506100dc6102bd565b6040516100e99190610c40565b60405180910390f35b6100fa6102c3565b005b34801561010857600080fd5b50610111610613565b005b34801561011f57600080fd5b50610128610a10565b005b34801561013657600080fd5b5061013f610acb565b60405161014c9190610cd2565b60405180910390f35b34801561016157600080fd5b5061017c60048036038101906101779190610d50565b610ade565b6040516101899190610c40565b60405180910390f35b34801561019e57600080fd5b506101a7610af6565b6040516101b49190610c40565b60405180910390f35b3480156101c957600080fd5b506101e460048036038101906101df9190610da9565b610afc565b6040516101f19190610c40565b60405180910390f35b34801561020657600080fd5b5061020f610b17565b60405161021c9190610c40565b60405180910390f35b34801561023157600080fd5b5061023a610b1d565b6040516102479190610c40565b60405180910390f35b34801561025c57600080fd5b50610265610b23565b6040516102729190610e0a565b60405180910390f35b34801561028757600080fd5b50610290610b49565b005b34801561029e57600080fd5b506102a7610c03565b6040516102b49190610e0a565b60405180910390f35b60055481565b60008054906101000a900473ffffffffffffffffffffffffffffffffffffffff1673ffffffffffffffffffffffffffffffffffffffff163373ffffffffffffffffffffffffffffffffffffffff161415610352576040517f08c379a000000000000000000000000000000000000000000000000000000000815260040161034990610e82565b60405180910390fd5b600154431161036057600080fd5b600254431061036e57600080fd5b6001600381111561038257610381610c5b565b5b600360009054906101000a900460ff1660038111156103a4576103a3610c5b565b5b146103ae57600080fd5b670de0b6b3a76400003410156103c357600080fd5b600034600760003373ffffffffffffffffffffffffffffffffffffffff1673ffffffffffffffffffffffffffffffffffffffff168152602001908152602001600020546104109190610ed1565b9050600454811161042057600080fd5b80600760003373ffffffffffffffffffffffffffffffffffffffff1673ffffffffffffffffffffffffffffffffffffffff1681526020019081526020016000208190555060076000600660009054906101000a900473ffffffffffffffffffffffffffffffffffffffff1673ffffffffffffffffffffffffffffffffffffffff1673ffffffffffffffffffffffffffffffffffffffff1681526020019081526020016000205481101561055057610545600554826104de9190610ed1565b60076000600660009054906101000a900473ffffffffffffffffffffffffffffffffffffffff1673ffffffffffffffffffffffffffffffffffffffff1673ffffffffffffffffffffffffffffffffffffffff16815260200190815260200160002054610afc565b600481905550610610565b6105c88160055460076000600660009054906101000a900473ffffffffffffffffffffffffffffffffffffffff1673ffffffffffffffffffffffffffffffffffffffff1673ffffffffffffffffffffffffffffffffffffffff168152602001908152602001600020546105c39190610ed1565b610afc565b60048190555033600660006101000a81548173ffffffffffffffffffffffffffffffffffffffff021916908373ffffffffffffffffffffffffffffffffffffffff1602179055505b50565b60038081111561062657610625610c5b565b5b600360009054906101000a900460ff16600381111561064857610647610c5b565b5b148061068757506002600381111561066357610662610c5b565b5b600360009054906101000a900460ff16600381111561068557610684610c5b565b5b145b80610693575060025443115b61069c57600080fd5b60008054906101000a900473ffffffffffffffffffffffffffffffffffffffff1673ffffffffffffffffffffffffffffffffffffffff163373ffffffffffffffffffffffffffffffffffffffff16148061073557506000600760003373ffffffffffffffffffffffffffffffffffffffff1673ffffffffffffffffffffffffffffffffffffffff16815260200190815260200160002054115b61073e57600080fd5b60008060038081111561075457610753610c5b565b5b600360009054906101000a900460ff16600381111561077657610775610c5b565b5b14156107c657339150600760003373ffffffffffffffffffffffffffffffffffffffff1673ffffffffffffffffffffffffffffffffffffffff168152602001908152602001600020549050610980565b60008054906101000a900473ffffffffffffffffffffffffffffffffffffffff1673ffffffffffffffffffffffffffffffffffffffff163373ffffffffffffffffffffffffffffffffffffffff1614156108475760008054906101000a900473ffffffffffffffffffffffffffffffffffffffff169150600454905061097f565b600660009054906101000a900473ffffffffffffffffffffffffffffffffffffffff1673ffffffffffffffffffffffffffffffffffffffff163373ffffffffffffffffffffffffffffffffffffffff16141561093857600660009054906101000a900473ffffffffffffffffffffffffffffffffffffffff16915060045460076000600660009054906101000a900473ffffffffffffffffffffffffffffffffffffffff1673ffffffffffffffffffffffffffffffffffffffff1673ffffffffffffffffffffffffffffffffffffffff168152602001908152602001600020546109319190610f27565b905061097e565b339150600760003373ffffffffffffffffffffffffffffffffffffffff1673ffffffffffffffffffffffffffffffffffffffff1681526020019081526020016000205490505b5b5b6000600760003373ffffffffffffffffffffffffffffffffffffffff1673ffffffffffffffffffffffffffffffffffffffff168152602001908152602001600020819055508173ffffffffffffffffffffffffffffffffffffffff166108fc829081150290604051600060405180830381858888f19350505050158015610a0b573d6000803e3d6000fd5b505050565b60008054906101000a900473ffffffffffffffffffffffffffffffffffffffff1673ffffffffffffffffffffffffffffffffffffffff163373ffffffffffffffffffffffffffffffffffffffff1614610a9e576040517f08c379a0000000000000000000000000000000000000000000000000000000008152600401610a9590610e82565b60405180910390fd5b6002600360006101000a81548160ff02191690836003811115610ac457610ac3610c5b565b5b0217905550565b600360009054906101000a900460ff1681565b60076020528060005260406000206000915090505481565b60045481565b6000818311610b0d57829050610b11565b8190505b92915050565b60025481565b60015481565b600660009054906101000a900473ffffffffffffffffffffffffffffffffffffffff1681565b60008054906101000a900473ffffffffffffffffffffffffffffffffffffffff1673ffffffffffffffffffffffffffffffffffffffff163373ffffffffffffffffffffffffffffffffffffffff1614610bd7576040517f08c379a0000000000000000000000000000000000000000000000000000000008152600401610bce90610e82565b60405180910390fd5b60038060006101000a81548160ff02191690836003811115610bfc57610bfb610c5b565b5b0217905550565b60008054906101000a900473ffffffffffffffffffffffffffffffffffffffff1681565b6000819050919050565b610c3a81610c27565b82525050565b6000602082019050610c556000830184610c31565b92915050565b7f4e487b7100000000000000000000000000000000000000000000000000000000600052602160045260246000fd5b60048110610c9b57610c9a610c5b565b5b50565b6000819050610cac82610c8a565b919050565b6000610cbc82610c9e565b9050919050565b610ccc81610cb1565b82525050565b6000602082019050610ce76000830184610cc3565b92915050565b600080fd5b600073ffffffffffffffffffffffffffffffffffffffff82169050919050565b6000610d1d82610cf2565b9050919050565b610d2d81610d12565b8114610d3857600080fd5b50565b600081359050610d4a81610d24565b92915050565b600060208284031215610d6657610d65610ced565b5b6000610d7484828501610d3b565b91505092915050565b610d8681610c27565b8114610d9157600080fd5b50565b600081359050610da381610d7d565b92915050565b60008060408385031215610dc057610dbf610ced565b5b6000610dce85828601610d94565b9250506020610ddf85828601610d94565b9150509250929050565b6000610df482610cf2565b9050919050565b610e0481610de9565b82525050565b6000602082019050610e1f6000830184610dfb565b92915050565b600082825260208201905092915050565b7f6f776e65722063616e6e6f742062696400000000000000000000000000000000600082015250565b6000610e6c601083610e25565b9150610e7782610e36565b602082019050919050565b60006020820190508181036000830152610e9b81610e5f565b9050919050565b7f4e487b7100000000000000000000000000000000000000000000000000000000600052601160045260246000fd5b6000610edc82610c27565b9150610ee783610c27565b9250827fffffffffffffffffffffffffffffffffffffffffffffffffffffffffffffffff03821115610f1c57610f1b610ea2565b5b828201905092915050565b6000610f3282610c27565b9150610f3d83610c27565b925082821015610f5057610f4f610ea2565b5b82820390509291505056fea2646970667358221220fc1c588e3621332292eae55ad50644f7ffe4961d0306a9545f5ab41c5f41fe9a64736f6c634300080b0033",
  "immutableReferences": {},
  "source": "// SPDX-License-Identifier: GPL-3.0\r\npragma solidity >=0.7.0 <0.9.0;\r\n\r\ncontract auction{\r\n    address payable public auctioner;\r\n    uint public stblock;\r\n    uint public etblock;\r\n\r\n    enum auc_state{Started, Running, Ended, Canceled}\r\n    auc_state public auctionstate;\r\n\r\n    // uint public highestbid;\r\n    uint public highestpayablebid;\r\n    uint public bidinc;\r\n\r\n    address payable public highestbidder;\r\n    \r\n    mapping(address => uint) public bids;\r\n\r\n    constructor(){\r\n        auctioner = payable(msg.sender);\r\n        auctionstate =  auc_state.Running;\r\n        stblock = block.number;\r\n        etblock = stblock + 240;\r\n        bidinc = 1 ether;\r\n\r\n    }\r\n\r\n    modifier notowner(){\r\n        require(msg.sender != auctioner,\"owner cannot bid\");\r\n        _;\r\n\r\n    }\r\n    \r\n    modifier owner(){\r\n        require(msg.sender == auctioner,\"owner cannot bid\");\r\n        _;\r\n\r\n    }\r\n\r\n    modifier Started(){\r\n        require(block.number>stblock);\r\n        _;\r\n\r\n    }\r\n\r\n    modifier beforeending(){\r\n        require(block.number<etblock);\r\n        _;\r\n\r\n    }\r\n    \r\n    \r\n    function min(uint a, uint b) pure public returns(uint){\r\n        if(a<=b)\r\n        return a;\r\n        else \r\n        return b;\r\n\r\n    }\r\n\r\n    function cancleAuc() public owner{\r\n        auctionstate = auc_state.Canceled;\r\n\r\n    }\r\n    function endAuc() public owner{\r\n        auctionstate = auc_state.Ended;\r\n\r\n    }\r\n\r\n\r\n    function bid()payable public notowner Started beforeending{\r\n        \r\n        require(auctionstate == auc_state.Running);\r\n        require(msg.value>=1 ether);\r\n        \r\n        uint currentbid = bids[msg.sender] + msg.value; \r\n        require(currentbid>highestpayablebid);\r\n\r\n        bids[msg.sender] = currentbid;\r\n\r\n        if(currentbid<bids[highestbidder]){\r\n            highestpayablebid = min(currentbid + bidinc, bids[highestbidder]);\r\n        } \r\n         else{\r\n              highestpayablebid = min(currentbid, bids[highestbidder]+ bidinc);\r\n              highestbidder = payable(msg.sender);\r\n         }\r\n\r\n        \r\n\r\n\r\n    }\r\n\r\n    function finilize() public{\r\n        require(auctionstate == auc_state.Canceled|| auctionstate == auc_state.Ended || block.number>etblock);\r\n        require(msg.sender == auctioner || bids[msg.sender]>0);\r\n\r\n        address payable person;\r\n        uint value;\r\n         if(auctionstate == auc_state.Canceled){\r\n             person = payable(msg.sender);\r\n             value = bids[msg.sender];\r\n\r\n\r\n         }\r\n         else{\r\n             if(msg.sender == auctioner){\r\n                 person = auctioner;\r\n                 value = highestpayablebid;\r\n\r\n             }\r\n             else{\r\n                 if(msg.sender == highestbidder){\r\n                     person = highestbidder;\r\n                     value = bids[highestbidder]-highestpayablebid;\r\n\r\n\r\n                 }\r\n                 else{\r\n                     person = payable(msg.sender);\r\n                     value = bids[msg.sender];\r\n                 }\r\n             }\r\n             \r\n         }\r\n         bids[msg.sender]=0;\r\n         person.transfer(value);\r\n    }\r\n\r\n\r\n}",
  "sourcePath": "C:\\Users\\91986\\OneDrive\\Documents\\code\\auction\\contracts\\auction.sol",
  "compiler": {
    "name": "solc",
    "version": "0.8.11+commit.d7f03943.Emscripten.clang"
  },
  "schemaVersion": "3.4.4",
  "updatedAt": "2022-07-30T09:30:11.436Z",
  "devdoc": {
    "kind": "dev",
    "methods": {},
    "version": 1
  },
  "userdoc": {
    "kind": "user",
    "methods": {},
    "version": 1
  }
}